{
  "contractName": "wallet",
  "abi": [
    {
      "inputs": [
        {
          "internalType": "address",
          "name": "",
          "type": "address"
        }
      ],
      "name": "accounts",
      "outputs": [
        {
          "internalType": "uint256",
          "name": "",
          "type": "uint256"
        }
      ],
      "stateMutability": "view",
      "type": "function",
      "constant": true
    },
    {
      "inputs": [
        {
          "internalType": "uint256",
          "name": "amount",
          "type": "uint256"
        }
      ],
      "name": "addMoney",
      "outputs": [],
      "stateMutability": "nonpayable",
      "type": "function"
    },
    {
      "inputs": [
        {
          "internalType": "uint256",
          "name": "amount",
          "type": "uint256"
        },
        {
          "internalType": "address payable",
          "name": "to",
          "type": "address"
        }
      ],
      "name": "mintFunds",
      "outputs": [],
      "stateMutability": "payable",
      "type": "function",
      "payable": true
    },
    {
      "inputs": [
        {
          "internalType": "address",
          "name": "add",
          "type": "address"
        }
      ],
      "name": "amountCheck",
      "outputs": [
        {
          "internalType": "uint256",
          "name": "",
          "type": "uint256"
        }
      ],
      "stateMutability": "view",
      "type": "function",
      "constant": true
    }
  ],
  "bytecode": "0x608060405234801561001057600080fd5b506105c1806100206000396000f3fe60806040526004361061003f5760003560e01c8063537eeb51146100445780635e5c06e214610081578063d0bc1a88146100be578063fc784c1b146100e7575b600080fd5b34801561005057600080fd5b5061006b6004803603810190610066919061033f565b610103565b6040516100789190610385565b60405180910390f35b34801561008d57600080fd5b506100a860048036038101906100a3919061033f565b61014b565b6040516100b59190610385565b60405180910390f35b3480156100ca57600080fd5b506100e560048036038101906100e091906103cc565b610163565b005b61010160048036038101906100fc9190610437565b6101bb565b005b60008060008373ffffffffffffffffffffffffffffffffffffffff1673ffffffffffffffffffffffffffffffffffffffff168152602001908152602001600020549050919050565b60006020528060005260406000206000915090505481565b806000803373ffffffffffffffffffffffffffffffffffffffff1673ffffffffffffffffffffffffffffffffffffffff16815260200190815260200160002060008282546101b191906104a6565b9250508190555050565b816000803373ffffffffffffffffffffffffffffffffffffffff1673ffffffffffffffffffffffffffffffffffffffff16815260200190815260200160002054101561023c576040517f08c379a000000000000000000000000000000000000000000000000000000000815260040161023390610537565b60405180910390fd5b8073ffffffffffffffffffffffffffffffffffffffff166108fc839081150290604051600060405180830381858888f19350505050158015610282573d6000803e3d6000fd5b50816000803373ffffffffffffffffffffffffffffffffffffffff1673ffffffffffffffffffffffffffffffffffffffff16815260200190815260200160002060008282546102d19190610557565b925050819055505050565b600080fd5b600073ffffffffffffffffffffffffffffffffffffffff82169050919050565b600061030c826102e1565b9050919050565b61031c81610301565b811461032757600080fd5b50565b60008135905061033981610313565b92915050565b600060208284031215610355576103546102dc565b5b60006103638482850161032a565b91505092915050565b6000819050919050565b61037f8161036c565b82525050565b600060208201905061039a6000830184610376565b92915050565b6103a98161036c565b81146103b457600080fd5b50565b6000813590506103c6816103a0565b92915050565b6000602082840312156103e2576103e16102dc565b5b60006103f0848285016103b7565b91505092915050565b6000610404826102e1565b9050919050565b610414816103f9565b811461041f57600080fd5b50565b6000813590506104318161040b565b92915050565b6000806040838503121561044e5761044d6102dc565b5b600061045c858286016103b7565b925050602061046d85828601610422565b9150509250929050565b7f4e487b7100000000000000000000000000000000000000000000000000000000600052601160045260246000fd5b60006104b18261036c565b91506104bc8361036c565b92508282019050808211156104d4576104d3610477565b5b92915050565b600082825260208201905092915050565b7f696e2073756666696369656e7420616d6f756e74000000000000000000000000600082015250565b60006105216014836104da565b915061052c826104eb565b602082019050919050565b6000602082019050818103600083015261055081610514565b9050919050565b60006105628261036c565b915061056d8361036c565b925082820390508181111561058557610584610477565b5b9291505056fea26469706673582212202a33e36159e48dcb5af0fa3e4236630831862f0257815849623c58101ac75d3564736f6c63430008110033",
  "immutableReferences": {},
  "source": "// SPDX-License-Identifier: MIT\r\npragma solidity ^0.8.4;\r\ncontract wallet{\r\n\r\n    mapping(address =>uint ) public accounts;\r\n    function  addMoney(uint amount) public {\r\n        accounts[msg.sender]+=amount;\r\n        \r\n    }\r\n    function mintFunds (uint amount,address payable to) public payable{\r\n require(accounts[msg.sender]>=amount,\"in sufficient amount\");\r\n         to.transfer(amount);\r\n         accounts[msg.sender]-=amount;\r\n        \r\n    }\r\n    function  amountCheck(address add) public view returns(uint){\r\n      return(accounts[add]);  \r\n    } \r\n}",
  "sourcePath": "D:\\Truffle-Project\\contracts\\check.sol",
  "compiler": {
    "name": "solc",
    "version": "0.8.17+commit.8df45f5f.Emscripten.clang"
  },
  "schemaVersion": "3.4.11",
  "updatedAt": "2023-01-21T16:12:16.026Z",
  "networkType": "ethereum",
  "devdoc": {
    "kind": "dev",
    "methods": {},
    "version": 1
  },
  "userdoc": {
    "kind": "user",
    "methods": {},
    "version": 1
  }
}